{
  "_format": "hh-sol-artifact-1",
  "contractName": "Marketplace",
  "sourceName": "src/backend/contracts/Marketplace.sol",
  "abi": [
    {
      "anonymous": false,
      "inputs": [
        {
          "indexed": false,
          "internalType": "uint256",
          "name": "itemId",
          "type": "uint256"
        },
        {
          "indexed": true,
          "internalType": "address",
          "name": "highestBidder",
          "type": "address"
        },
        {
          "indexed": false,
          "internalType": "uint256",
          "name": "highestBid",
          "type": "uint256"
        }
      ],
      "name": "Bid",
      "type": "event"
    },
    {
      "anonymous": false,
      "inputs": [
        {
          "indexed": false,
          "internalType": "uint256",
          "name": "itemId",
          "type": "uint256"
        },
        {
          "indexed": true,
          "internalType": "address",
          "name": "nft",
          "type": "address"
        },
        {
          "indexed": false,
          "internalType": "uint256",
          "name": "tokenId",
          "type": "uint256"
        },
        {
          "indexed": true,
          "internalType": "address",
          "name": "seller",
          "type": "address"
        },
        {
          "indexed": false,
          "internalType": "bool",
          "name": "isSold",
          "type": "bool"
        },
        {
          "indexed": false,
          "internalType": "bool",
          "name": "isStarted",
          "type": "bool"
        },
        {
          "indexed": false,
          "internalType": "uint256",
          "name": "endAt",
          "type": "uint256"
        },
        {
          "indexed": false,
          "internalType": "uint256",
          "name": "highestBid",
          "type": "uint256"
        }
      ],
      "name": "Offered",
      "type": "event"
    },
    {
      "anonymous": false,
      "inputs": [
        {
          "indexed": false,
          "internalType": "bool",
          "name": "isStarted",
          "type": "bool"
        },
        {
          "indexed": false,
          "internalType": "uint256",
          "name": "startPrice",
          "type": "uint256"
        }
      ],
      "name": "StartAuction",
      "type": "event"
    },
    {
      "inputs": [
        {
          "internalType": "uint256",
          "name": "_itemId",
          "type": "uint256"
        }
      ],
      "name": "bid",
      "outputs": [],
      "stateMutability": "payable",
      "type": "function"
    },
    {
      "inputs": [
        {
          "internalType": "uint256",
          "name": "_itemId",
          "type": "uint256"
        }
      ],
      "name": "endAuction",
      "outputs": [],
      "stateMutability": "nonpayable",
      "type": "function"
    },
    {
      "inputs": [
        {
          "internalType": "uint256",
          "name": "_itemId",
          "type": "uint256"
        },
        {
          "internalType": "address",
          "name": "addr",
          "type": "address"
        }
      ],
      "name": "getBid",
      "outputs": [
        {
          "internalType": "uint256",
          "name": "",
          "type": "uint256"
        }
      ],
      "stateMutability": "view",
      "type": "function"
    },
    {
      "inputs": [
        {
          "internalType": "uint256",
          "name": "_itemId",
          "type": "uint256"
        },
        {
          "internalType": "uint256",
          "name": "index",
          "type": "uint256"
        }
      ],
      "name": "getBidderAddress",
      "outputs": [
        {
          "internalType": "address",
          "name": "",
          "type": "address"
        }
      ],
      "stateMutability": "view",
      "type": "function"
    },
    {
      "inputs": [],
      "name": "itemCount",
      "outputs": [
        {
          "internalType": "uint256",
          "name": "",
          "type": "uint256"
        }
      ],
      "stateMutability": "view",
      "type": "function"
    },
    {
      "inputs": [
        {
          "internalType": "uint256",
          "name": "",
          "type": "uint256"
        }
      ],
      "name": "items",
      "outputs": [
        {
          "internalType": "uint256",
          "name": "itemId",
          "type": "uint256"
        },
        {
          "internalType": "contract IERC721",
          "name": "nft",
          "type": "address"
        },
        {
          "internalType": "uint256",
          "name": "tokenId",
          "type": "uint256"
        },
        {
          "internalType": "uint256",
          "name": "startPrice",
          "type": "uint256"
        },
        {
          "internalType": "address payable",
          "name": "seller",
          "type": "address"
        },
        {
          "internalType": "bool",
          "name": "isSold",
          "type": "bool"
        },
        {
          "internalType": "bool",
          "name": "isStarted",
          "type": "bool"
        },
        {
          "internalType": "uint256",
          "name": "endAt",
          "type": "uint256"
        },
        {
          "internalType": "address payable",
          "name": "highestBidder",
          "type": "address"
        },
        {
          "internalType": "uint256",
          "name": "highestBid",
          "type": "uint256"
        }
      ],
      "stateMutability": "view",
      "type": "function"
    },
    {
      "inputs": [
        {
          "internalType": "contract IERC721",
          "name": "_nft",
          "type": "address"
        },
        {
          "internalType": "uint256",
          "name": "_tokenId",
          "type": "uint256"
        }
      ],
      "name": "makeItem",
      "outputs": [],
      "stateMutability": "nonpayable",
      "type": "function"
    },
    {
      "inputs": [
        {
          "internalType": "uint256",
          "name": "_itemId",
          "type": "uint256"
        },
        {
          "internalType": "uint256",
          "name": "_endAt",
          "type": "uint256"
        },
        {
          "internalType": "uint256",
          "name": "_startPrice",
          "type": "uint256"
        }
      ],
      "name": "startAuction",
      "outputs": [],
      "stateMutability": "nonpayable",
      "type": "function"
    },
    {
      "inputs": [
        {
          "internalType": "uint256",
          "name": "_itemId",
          "type": "uint256"
        }
      ],
      "name": "stopAuction",
      "outputs": [],
      "stateMutability": "nonpayable",
      "type": "function"
    }
  ],
  "bytecode": "0x608060405234801561001057600080fd5b5060016000819055506119ad806100286000396000f3fe6080604052600436106100865760003560e01c8063b793242311610059578063b793242314610124578063b9a2de3a14610161578063bfb231d21461018a578063eba1b60b146101d0578063f510f6ae1461020d57610086565b80631a1beae21461008b578063454a2ab3146100b45780636bfb0d01146100d057806391e078bb146100fb575b600080fd5b34801561009757600080fd5b506100b260048036038101906100ad9190611120565b610236565b005b6100ce60048036038101906100c9919061115c565b610548565b005b3480156100dc57600080fd5b506100e5610944565b6040516100f2919061152d565b60405180910390f35b34801561010757600080fd5b50610122600480360381019061011d91906111fd565b61094a565b005b34801561013057600080fd5b5061014b600480360381019061014691906111c1565b610aca565b604051610158919061139b565b60405180910390f35b34801561016d57600080fd5b506101886004803603810190610183919061115c565b610b4d565b005b34801561019657600080fd5b506101b160048036038101906101ac919061115c565b610f2d565b6040516101c79a99989796959493929190611548565b60405180910390f35b3480156101dc57600080fd5b506101f760048036038101906101f29190611185565b610ffb565b604051610204919061152d565b60405180910390f35b34801561021957600080fd5b50610234600480360381019061022f919061115c565b611059565b005b6002600054141561027c576040517f08c379a00000000000000000000000000000000000000000000000000000000081526004016102739061150d565b60405180910390fd5b60026000819055508173ffffffffffffffffffffffffffffffffffffffff166323b872dd3330846040518463ffffffff1660e01b81526004016102c1939291906113ed565b600060405180830381600087803b1580156102db57600080fd5b505af11580156102ef573d6000803e3d6000fd5b50505050600160008154809291906103069061179b565b9190505550600060026000600154815260200190815260200160002090506001548160000181905550828160010160006101000a81548173ffffffffffffffffffffffffffffffffffffffff021916908373ffffffffffffffffffffffffffffffffffffffff160217905550818160020181905550338160040160006101000a81548173ffffffffffffffffffffffffffffffffffffffff021916908373ffffffffffffffffffffffffffffffffffffffff16021790555060008160040160146101000a81548160ff02191690831515021790555060008160040160156101000a81548160ff0219169083151502179055506000816005018190555060008160060160006101000a81548173ffffffffffffffffffffffffffffffffffffffff021916908373ffffffffffffffffffffffffffffffffffffffff160217905550600081600701819055503373ffffffffffffffffffffffffffffffffffffffff168373ffffffffffffffffffffffffffffffffffffffff167f287750b953bf3e9bdd4135551dabb856749af3a3c346e5481f179f9b543f28dd6001548560026000600154815260200190815260200160002060040160149054906101000a900460ff1660026000600154815260200190815260200160002060040160159054906101000a900460ff1660026000600154815260200190815260200160002060050154600260006001548152602001908152602001600020600701546040516105339695949392919061160d565b60405180910390a35060016000819055505050565b60006002600083815260200190815260200160002090508060040160149054906101000a900460ff16156105b1576040517f08c379a00000000000000000000000000000000000000000000000000000000081526004016105a89061144d565b60405180910390fd5b8060040160159054906101000a900460ff16610602576040517f08c379a00000000000000000000000000000000000000000000000000000000081526004016105f9906114ed565b60405180910390fd5b80600501544210610648576040517f08c379a000000000000000000000000000000000000000000000000000000000815260040161063f9061148d565b60405180910390fd5b60008211801561065a57506001548211155b610699576040517f08c379a0000000000000000000000000000000000000000000000000000000008152600401610690906114ad565b60405180910390fd5b80600701548160090160003373ffffffffffffffffffffffffffffffffffffffff1673ffffffffffffffffffffffffffffffffffffffff16815260200190815260200160002054346106eb919061167f565b101561072c576040517f08c379a0000000000000000000000000000000000000000000000000000000008152600401610723906114cd565b60405180910390fd5b600073ffffffffffffffffffffffffffffffffffffffff168160060160009054906101000a900473ffffffffffffffffffffffffffffffffffffffff1673ffffffffffffffffffffffffffffffffffffffff161461087c5780600701548160090160008360060160009054906101000a900473ffffffffffffffffffffffffffffffffffffffff1673ffffffffffffffffffffffffffffffffffffffff1673ffffffffffffffffffffffffffffffffffffffff16815260200190815260200160002081905550806008018160060160009054906101000a900473ffffffffffffffffffffffffffffffffffffffff169080600181540180825580915050600190039060005260206000200160009091909190916101000a81548173ffffffffffffffffffffffffffffffffffffffff021916908373ffffffffffffffffffffffffffffffffffffffff1602179055505b338160060160006101000a81548173ffffffffffffffffffffffffffffffffffffffff021916908373ffffffffffffffffffffffffffffffffffffffff1602179055503481600701819055508060060160009054906101000a900473ffffffffffffffffffffffffffffffffffffffff1673ffffffffffffffffffffffffffffffffffffffff167fdcd726e11f8b5e160f00290f0fe3a1abb547474e53a8e7a8f49a85e7b1ca31998383600701546040516109389291906115e4565b60405180910390a25050565b60015481565b60026000541415610990576040517f08c379a00000000000000000000000000000000000000000000000000000000081526004016109879061150d565b60405180910390fd5b6002600081905550600081116109db576040517f08c379a00000000000000000000000000000000000000000000000000000000081526004016109d29061146d565b60405180910390fd5b60016002600085815260200190815260200160002060040160156101000a81548160ff0219169083151502179055508142610a16919061167f565b60026000858152602001908152602001600020600501819055508060026000858152602001908152602001600020600301819055507f30a39fcd0dc176736767bb20423ed1bda1d17d78b18215721859cd42d89ba2b66002600085815260200190815260200160002060040160159054906101000a900460ff166002600086815260200190815260200160002060030154604051610ab5929190611424565b60405180910390a16001600081905550505050565b6000600260008481526020019081526020016000206008018281548110610b1a577f4e487b7100000000000000000000000000000000000000000000000000000000600052603260045260246000fd5b9060005260206000200160009054906101000a900473ffffffffffffffffffffffffffffffffffffffff16905092915050565b60026000541415610b93576040517f08c379a0000000000000000000000000000000000000000000000000000000008152600401610b8a9061150d565b60405180910390fd5b60026000819055506000600260008381526020019081526020016000209050600073ffffffffffffffffffffffffffffffffffffffff168160060160009054906101000a900473ffffffffffffffffffffffffffffffffffffffff1673ffffffffffffffffffffffffffffffffffffffff1614610f04578060040160009054906101000a900473ffffffffffffffffffffffffffffffffffffffff1673ffffffffffffffffffffffffffffffffffffffff166108fc82600701549081150290604051600060405180830381858888f19350505050158015610c78573d6000803e3d6000fd5b508060010160009054906101000a900473ffffffffffffffffffffffffffffffffffffffff1673ffffffffffffffffffffffffffffffffffffffff166323b872dd308360060160009054906101000a900473ffffffffffffffffffffffffffffffffffffffff1684600201546040518463ffffffff1660e01b8152600401610d02939291906113b6565b600060405180830381600087803b158015610d1c57600080fd5b505af1158015610d30573d6000803e3d6000fd5b5050505060018160040160146101000a81548160ff02191690831515021790555060005b8160080180549050811015610f02576000826008018281548110610da1577f4e487b7100000000000000000000000000000000000000000000000000000000600052603260045260246000fd5b9060005260206000200160009054906101000a900473ffffffffffffffffffffffffffffffffffffffff16905060008360090160008373ffffffffffffffffffffffffffffffffffffffff1673ffffffffffffffffffffffffffffffffffffffff168152602001908152602001600020541115610eee5760008360090160008373ffffffffffffffffffffffffffffffffffffffff1673ffffffffffffffffffffffffffffffffffffffff16815260200190815260200160002054905060008460090160008473ffffffffffffffffffffffffffffffffffffffff1673ffffffffffffffffffffffffffffffffffffffff168152602001908152602001600020819055508173ffffffffffffffffffffffffffffffffffffffff166108fc829081150290604051600060405180830381858888f19350505050158015610eeb573d6000803e3d6000fd5b50505b508080610efa9061179b565b915050610d54565b505b60008160040160156101000a81548160ff02191690831515021790555050600160008190555050565b60026020528060005260406000206000915090508060000154908060010160009054906101000a900473ffffffffffffffffffffffffffffffffffffffff16908060020154908060030154908060040160009054906101000a900473ffffffffffffffffffffffffffffffffffffffff16908060040160149054906101000a900460ff16908060040160159054906101000a900460ff16908060050154908060060160009054906101000a900473ffffffffffffffffffffffffffffffffffffffff1690806007015490508a565b60006002600084815260200190815260200160002060090160008373ffffffffffffffffffffffffffffffffffffffff1673ffffffffffffffffffffffffffffffffffffffff16815260200190815260200160002054905092915050565b6002600054141561109f576040517f08c379a00000000000000000000000000000000000000000000000000000000081526004016110969061150d565b60405180910390fd5b600260008190555060006002600083815260200190815260200160002060040160156101000a81548160ff021916908315150217905550600160008190555050565b6000813590506110f081611932565b92915050565b60008135905061110581611949565b92915050565b60008135905061111a81611960565b92915050565b6000806040838503121561113357600080fd5b6000611141858286016110f6565b92505060206111528582860161110b565b9150509250929050565b60006020828403121561116e57600080fd5b600061117c8482850161110b565b91505092915050565b6000806040838503121561119857600080fd5b60006111a68582860161110b565b92505060206111b7858286016110e1565b9150509250929050565b600080604083850312156111d457600080fd5b60006111e28582860161110b565b92505060206111f38582860161110b565b9150509250929050565b60008060006060848603121561121257600080fd5b60006112208682870161110b565b93505060206112318682870161110b565b92505060406112428682870161110b565b9150509250925092565b61125581611741565b82525050565b611264816116e7565b82525050565b611273816116d5565b82525050565b611282816116f9565b82525050565b61129181611753565b82525050565b60006112a460118361166e565b91506112af82611813565b602082019050919050565b60006112c7601f8361166e565b91506112d28261183c565b602082019050919050565b60006112ea600d8361166e565b91506112f582611865565b602082019050919050565b600061130d60128361166e565b91506113188261188e565b602082019050919050565b600061133060158361166e565b915061133b826118b7565b602082019050919050565b6000611353600b8361166e565b915061135e826118e0565b602082019050919050565b6000611376601f8361166e565b915061138182611909565b602082019050919050565b61139581611737565b82525050565b60006020820190506113b0600083018461126a565b92915050565b60006060820190506113cb600083018661126a565b6113d8602083018561124c565b6113e5604083018461138c565b949350505050565b6000606082019050611402600083018661126a565b61140f602083018561126a565b61141c604083018461138c565b949350505050565b60006040820190506114396000830185611279565b611446602083018461138c565b9392505050565b6000602082019050818103600083015261146681611297565b9050919050565b60006020820190508181036000830152611486816112ba565b9050919050565b600060208201905081810360008301526114a6816112dd565b9050919050565b600060208201905081810360008301526114c681611300565b9050919050565b600060208201905081810360008301526114e681611323565b9050919050565b6000602082019050818103600083015261150681611346565b9050919050565b6000602082019050818103600083015261152681611369565b9050919050565b6000602082019050611542600083018461138c565b92915050565b60006101408201905061155e600083018d61138c565b61156b602083018c611288565b611578604083018b61138c565b611585606083018a61138c565b611592608083018961125b565b61159f60a0830188611279565b6115ac60c0830187611279565b6115b960e083018661138c565b6115c761010083018561125b565b6115d561012083018461138c565b9b9a5050505050505050505050565b60006040820190506115f9600083018561138c565b611606602083018461138c565b9392505050565b600060c082019050611622600083018961138c565b61162f602083018861138c565b61163c6040830187611279565b6116496060830186611279565b611656608083018561138c565b61166360a083018461138c565b979650505050505050565b600082825260208201905092915050565b600061168a82611737565b915061169583611737565b9250827fffffffffffffffffffffffffffffffffffffffffffffffffffffffffffffffff038211156116ca576116c96117e4565b5b828201905092915050565b60006116e082611717565b9050919050565b60006116f282611717565b9050919050565b60008115159050919050565b6000611710826116d5565b9050919050565b600073ffffffffffffffffffffffffffffffffffffffff82169050919050565b6000819050919050565b600061174c82611777565b9050919050565b600061175e82611765565b9050919050565b600061177082611717565b9050919050565b600061178282611789565b9050919050565b600061179482611717565b9050919050565b60006117a682611737565b91507fffffffffffffffffffffffffffffffffffffffffffffffffffffffffffffffff8214156117d9576117d86117e4565b5b600182019050919050565b7f4e487b7100000000000000000000000000000000000000000000000000000000600052601160045260246000fd5b7f6974656d20616c726561647920736f6c64000000000000000000000000000000600082015250565b7f5072696365206d7573742062652067726561746572207468616e207a65726f00600082015250565b7f61756374696f6e20656e64656400000000000000000000000000000000000000600082015250565b7f6974656d20646f65736e27742065786973740000000000000000000000000000600082015250565b7f6e6f7420656e6f7567682065746820746f206269640000000000000000000000600082015250565b7f6e6f742073746172746564000000000000000000000000000000000000000000600082015250565b7f5265656e7472616e637947756172643a207265656e7472616e742063616c6c00600082015250565b61193b816116d5565b811461194657600080fd5b50565b61195281611705565b811461195d57600080fd5b50565b61196981611737565b811461197457600080fd5b5056fea2646970667358221220542ef3b5f1d72ead877859ce4ad59c20ae8d7ea4714ca1f0e4f1032131ab24fe64736f6c63430008040033",
  "linkReferences": {},
  "deployedLinkReferences": {}
}