{
  "_format": "hh-sol-artifact-1",
  "contractName": "Marketplace",
  "sourceName": "src/backend/contracts/Marketplace.sol",
  "abi": [
    {
      "inputs": [],
      "stateMutability": "nonpayable",
      "type": "constructor"
    },
    {
      "anonymous": false,
      "inputs": [
        {
          "indexed": false,
          "internalType": "uint256",
          "name": "itemId",
          "type": "uint256"
        },
        {
          "indexed": true,
          "internalType": "address",
          "name": "highestBidder",
          "type": "address"
        },
        {
          "indexed": false,
          "internalType": "uint256",
          "name": "highestBid",
          "type": "uint256"
        }
      ],
      "name": "Bid",
      "type": "event"
    },
    {
      "anonymous": false,
      "inputs": [
        {
          "indexed": false,
          "internalType": "uint256",
          "name": "itemId",
          "type": "uint256"
        },
        {
          "indexed": true,
          "internalType": "address",
          "name": "nft",
          "type": "address"
        },
        {
          "indexed": false,
          "internalType": "uint256",
          "name": "tokenId",
          "type": "uint256"
        },
        {
          "indexed": true,
          "internalType": "address",
          "name": "seller",
          "type": "address"
        },
        {
          "indexed": false,
          "internalType": "bool",
          "name": "isSold",
          "type": "bool"
        },
        {
          "indexed": false,
          "internalType": "bool",
          "name": "isStarted",
          "type": "bool"
        },
        {
          "indexed": false,
          "internalType": "uint256",
          "name": "endAt",
          "type": "uint256"
        },
        {
          "indexed": false,
          "internalType": "uint256",
          "name": "highestBid",
          "type": "uint256"
        }
      ],
      "name": "Offered",
      "type": "event"
    },
    {
      "anonymous": false,
      "inputs": [
        {
          "indexed": false,
          "internalType": "bool",
          "name": "isStarted",
          "type": "bool"
        },
        {
          "indexed": false,
          "internalType": "uint256",
          "name": "startPrice",
          "type": "uint256"
        }
      ],
      "name": "StartAuction",
      "type": "event"
    },
    {
      "anonymous": false,
      "inputs": [
        {
          "indexed": true,
          "internalType": "address",
          "name": "buyer",
          "type": "address"
        }
      ],
      "name": "endAuc",
      "type": "event"
    },
    {
      "anonymous": false,
      "inputs": [
        {
          "indexed": false,
          "internalType": "address",
          "name": "ad",
          "type": "address"
        }
      ],
      "name": "setAdmin",
      "type": "event"
    },
    {
      "inputs": [],
      "name": "admin",
      "outputs": [
        {
          "internalType": "address payable",
          "name": "",
          "type": "address"
        }
      ],
      "stateMutability": "view",
      "type": "function"
    },
    {
      "inputs": [
        {
          "internalType": "uint256",
          "name": "_itemId",
          "type": "uint256"
        }
      ],
      "name": "bid",
      "outputs": [],
      "stateMutability": "payable",
      "type": "function"
    },
    {
      "inputs": [
        {
          "internalType": "uint256",
          "name": "_itemId",
          "type": "uint256"
        }
      ],
      "name": "endAuction",
      "outputs": [],
      "stateMutability": "nonpayable",
      "type": "function"
    },
    {
      "inputs": [
        {
          "internalType": "uint256",
          "name": "_itemId",
          "type": "uint256"
        },
        {
          "internalType": "address",
          "name": "addr",
          "type": "address"
        }
      ],
      "name": "getBid",
      "outputs": [
        {
          "internalType": "uint256",
          "name": "",
          "type": "uint256"
        }
      ],
      "stateMutability": "view",
      "type": "function"
    },
    {
      "inputs": [
        {
          "internalType": "uint256",
          "name": "_itemId",
          "type": "uint256"
        },
        {
          "internalType": "uint256",
          "name": "index",
          "type": "uint256"
        }
      ],
      "name": "getBidderAddress",
      "outputs": [
        {
          "internalType": "address",
          "name": "",
          "type": "address"
        }
      ],
      "stateMutability": "view",
      "type": "function"
    },
    {
      "inputs": [],
      "name": "itemCount",
      "outputs": [
        {
          "internalType": "uint256",
          "name": "",
          "type": "uint256"
        }
      ],
      "stateMutability": "view",
      "type": "function"
    },
    {
      "inputs": [
        {
          "internalType": "uint256",
          "name": "",
          "type": "uint256"
        }
      ],
      "name": "items",
      "outputs": [
        {
          "internalType": "uint256",
          "name": "itemId",
          "type": "uint256"
        },
        {
          "internalType": "contract IERC721",
          "name": "nft",
          "type": "address"
        },
        {
          "internalType": "uint256",
          "name": "tokenId",
          "type": "uint256"
        },
        {
          "internalType": "uint256",
          "name": "startPrice",
          "type": "uint256"
        },
        {
          "internalType": "bool",
          "name": "isSold",
          "type": "bool"
        },
        {
          "internalType": "bool",
          "name": "isStarted",
          "type": "bool"
        },
        {
          "internalType": "uint256",
          "name": "endAt",
          "type": "uint256"
        },
        {
          "internalType": "address payable",
          "name": "highestBidder",
          "type": "address"
        },
        {
          "internalType": "uint256",
          "name": "highestBid",
          "type": "uint256"
        }
      ],
      "stateMutability": "view",
      "type": "function"
    },
    {
      "inputs": [
        {
          "internalType": "contract IERC721",
          "name": "_nft",
          "type": "address"
        },
        {
          "internalType": "uint256",
          "name": "_tokenId",
          "type": "uint256"
        }
      ],
      "name": "makeItem",
      "outputs": [],
      "stateMutability": "nonpayable",
      "type": "function"
    },
    {
      "inputs": [
        {
          "internalType": "uint256",
          "name": "_itemId",
          "type": "uint256"
        },
        {
          "internalType": "uint256",
          "name": "_endAt",
          "type": "uint256"
        },
        {
          "internalType": "uint256",
          "name": "_startPrice",
          "type": "uint256"
        }
      ],
      "name": "startAuction",
      "outputs": [],
      "stateMutability": "nonpayable",
      "type": "function"
    },
    {
      "inputs": [
        {
          "internalType": "uint256",
          "name": "_itemId",
          "type": "uint256"
        }
      ],
      "name": "stopAuction",
      "outputs": [],
      "stateMutability": "nonpayable",
      "type": "function"
    }
  ],
  "bytecode": "0x60806040523480156200001157600080fd5b50600160008190555033600260006101000a81548173ffffffffffffffffffffffffffffffffffffffff021916908373ffffffffffffffffffffffffffffffffffffffff1602179055507f704b6c02682d329712ab11ef6312d46667fbdd78a5dc1aa406e65eec4d30cd5d336040516200008c9190620000ab565b60405180910390a1620000fc565b620000a581620000c8565b82525050565b6000602082019050620000c260008301846200009a565b92915050565b6000620000d582620000dc565b9050919050565b600073ffffffffffffffffffffffffffffffffffffffff82169050919050565b611ad9806200010c6000396000f3fe6080604052600436106100915760003560e01c8063b9a2de3a11610059578063b9a2de3a1461016c578063bfb231d214610195578063eba1b60b146101da578063f510f6ae14610217578063f851a4401461024057610091565b80631a1beae214610096578063454a2ab3146100bf5780636bfb0d01146100db57806391e078bb14610106578063b79324231461012f575b600080fd5b3480156100a257600080fd5b506100bd60048036038101906100b89190611240565b61026b565b005b6100d960048036038101906100d4919061127c565b61053a565b005b3480156100e757600080fd5b506100f0610982565b6040516100fd9190611668565b60405180910390f35b34801561011257600080fd5b5061012d6004803603810190610128919061131d565b610988565b005b34801561013b57600080fd5b50610156600480360381019061015191906112e1565b610b08565b60405161016391906114bb565b60405180910390f35b34801561017857600080fd5b50610193600480360381019061018e919061127c565b610b8b565b005b3480156101a157600080fd5b506101bc60048036038101906101b7919061127c565b61104d565b6040516101d199989796959493929190611683565b60405180910390f35b3480156101e657600080fd5b5061020160048036038101906101fc91906112a5565b6110f5565b60405161020e9190611668565b60405180910390f35b34801561022357600080fd5b5061023e6004803603810190610239919061127c565b611153565b005b34801561024c57600080fd5b506102556111db565b60405161026291906114d6565b60405180910390f35b600260005414156102b1576040517f08c379a00000000000000000000000000000000000000000000000000000000081526004016102a890611648565b60405180910390fd5b60026000819055508173ffffffffffffffffffffffffffffffffffffffff166323b872dd3330846040518463ffffffff1660e01b81526004016102f693929190611528565b600060405180830381600087803b15801561031057600080fd5b505af1158015610324573d6000803e3d6000fd5b505050506001600081548092919061033b906118c7565b9190505550600060036000600154815260200190815260200160002090506001548160000181905550828160010160006101000a81548173ffffffffffffffffffffffffffffffffffffffff021916908373ffffffffffffffffffffffffffffffffffffffff16021790555081816002018190555060008160040160006101000a81548160ff02191690831515021790555060008160040160016101000a81548160ff0219169083151502179055506000816005018190555060008160060160006101000a81548173ffffffffffffffffffffffffffffffffffffffff021916908373ffffffffffffffffffffffffffffffffffffffff160217905550600081600701819055503373ffffffffffffffffffffffffffffffffffffffff168373ffffffffffffffffffffffffffffffffffffffff167f287750b953bf3e9bdd4135551dabb856749af3a3c346e5481f179f9b543f28dd6001548560036000600154815260200190815260200160002060040160009054906101000a900460ff1660036000600154815260200190815260200160002060040160019054906101000a900460ff16600360006001548152602001908152602001600020600501546003600060015481526020019081526020016000206007015460405161052596959493929190611739565b60405180910390a35060016000819055505050565b60006003600083815260200190815260200160002090508060040160009054906101000a900460ff16156105a3576040517f08c379a000000000000000000000000000000000000000000000000000000000815260040161059a90611588565b60405180910390fd5b8060040160019054906101000a900460ff166105f4576040517f08c379a00000000000000000000000000000000000000000000000000000000081526004016105eb90611628565b60405180910390fd5b8060050154421061063a576040517f08c379a0000000000000000000000000000000000000000000000000000000008152600401610631906115c8565b60405180910390fd5b60008211801561064c57506001548211155b61068b576040517f08c379a0000000000000000000000000000000000000000000000000000000008152600401610682906115e8565b60405180910390fd5b80600701548160090160003373ffffffffffffffffffffffffffffffffffffffff1673ffffffffffffffffffffffffffffffffffffffff16815260200190815260200160002054346106dd91906117ab565b101561071e576040517f08c379a000000000000000000000000000000000000000000000000000000000815260040161071590611608565b60405180910390fd5b600073ffffffffffffffffffffffffffffffffffffffff168160060160009054906101000a900473ffffffffffffffffffffffffffffffffffffffff1673ffffffffffffffffffffffffffffffffffffffff161461086e5780600701548160090160008360060160009054906101000a900473ffffffffffffffffffffffffffffffffffffffff1673ffffffffffffffffffffffffffffffffffffffff1673ffffffffffffffffffffffffffffffffffffffff16815260200190815260200160002081905550806008018160060160009054906101000a900473ffffffffffffffffffffffffffffffffffffffff169080600181540180825580915050600190039060005260206000200160009091909190916101000a81548173ffffffffffffffffffffffffffffffffffffffff021916908373ffffffffffffffffffffffffffffffffffffffff1602179055505b338160060160006101000a81548173ffffffffffffffffffffffffffffffffffffffff021916908373ffffffffffffffffffffffffffffffffffffffff1602179055508060090160003373ffffffffffffffffffffffffffffffffffffffff1673ffffffffffffffffffffffffffffffffffffffff16815260200190815260200160002054346108fe91906117ab565b81600701819055508060060160009054906101000a900473ffffffffffffffffffffffffffffffffffffffff1673ffffffffffffffffffffffffffffffffffffffff167fdcd726e11f8b5e160f00290f0fe3a1abb547474e53a8e7a8f49a85e7b1ca3199838360070154604051610976929190611710565b60405180910390a25050565b60015481565b600260005414156109ce576040517f08c379a00000000000000000000000000000000000000000000000000000000081526004016109c590611648565b60405180910390fd5b600260008190555060008111610a19576040517f08c379a0000000000000000000000000000000000000000000000000000000008152600401610a10906115a8565b60405180910390fd5b60016003600085815260200190815260200160002060040160016101000a81548160ff0219169083151502179055508142610a5491906117ab565b60036000858152602001908152602001600020600501819055508060036000858152602001908152602001600020600301819055507f30a39fcd0dc176736767bb20423ed1bda1d17d78b18215721859cd42d89ba2b66003600085815260200190815260200160002060040160019054906101000a900460ff166003600086815260200190815260200160002060030154604051610af392919061155f565b60405180910390a16001600081905550505050565b6000600360008481526020019081526020016000206008018281548110610b58577f4e487b7100000000000000000000000000000000000000000000000000000000600052603260045260246000fd5b9060005260206000200160009054906101000a900473ffffffffffffffffffffffffffffffffffffffff16905092915050565b60026000541415610bd1576040517f08c379a0000000000000000000000000000000000000000000000000000000008152600401610bc890611648565b60405180910390fd5b60026000819055506000600360008381526020019081526020016000209050600073ffffffffffffffffffffffffffffffffffffffff168160060160009054906101000a900473ffffffffffffffffffffffffffffffffffffffff1673ffffffffffffffffffffffffffffffffffffffff161415610c6c5760008160040160016101000a81548160ff02191690831515021790555050611042565b600073ffffffffffffffffffffffffffffffffffffffff168160060160009054906101000a900473ffffffffffffffffffffffffffffffffffffffff1673ffffffffffffffffffffffffffffffffffffffff1614610fbc57600260009054906101000a900473ffffffffffffffffffffffffffffffffffffffff1673ffffffffffffffffffffffffffffffffffffffff166108fc82600701549081150290604051600060405180830381858888f19350505050158015610d30573d6000803e3d6000fd5b508060010160009054906101000a900473ffffffffffffffffffffffffffffffffffffffff1673ffffffffffffffffffffffffffffffffffffffff166323b872dd308360060160009054906101000a900473ffffffffffffffffffffffffffffffffffffffff1684600201546040518463ffffffff1660e01b8152600401610dba939291906114f1565b600060405180830381600087803b158015610dd457600080fd5b505af1158015610de8573d6000803e3d6000fd5b5050505060018160040160006101000a81548160ff02191690831515021790555060005b8160080180549050811015610fba576000826008018281548110610e59577f4e487b7100000000000000000000000000000000000000000000000000000000600052603260045260246000fd5b9060005260206000200160009054906101000a900473ffffffffffffffffffffffffffffffffffffffff16905060008360090160008373ffffffffffffffffffffffffffffffffffffffff1673ffffffffffffffffffffffffffffffffffffffff168152602001908152602001600020541115610fa65760008360090160008373ffffffffffffffffffffffffffffffffffffffff1673ffffffffffffffffffffffffffffffffffffffff16815260200190815260200160002054905060008460090160008473ffffffffffffffffffffffffffffffffffffffff1673ffffffffffffffffffffffffffffffffffffffff168152602001908152602001600020819055508173ffffffffffffffffffffffffffffffffffffffff166108fc829081150290604051600060405180830381858888f19350505050158015610fa3573d6000803e3d6000fd5b50505b508080610fb2906118c7565b915050610e0c565b505b60008160040160016101000a81548160ff0219169083151502179055508060060160009054906101000a900473ffffffffffffffffffffffffffffffffffffffff1673ffffffffffffffffffffffffffffffffffffffff167f66c87a2a6a833f058e0c7fafff9b3e7aaf3b55dfee877ec8b6340e80324db84c60405160405180910390a2505b600160008190555050565b60036020528060005260406000206000915090508060000154908060010160009054906101000a900473ffffffffffffffffffffffffffffffffffffffff16908060020154908060030154908060040160009054906101000a900460ff16908060040160019054906101000a900460ff16908060050154908060060160009054906101000a900473ffffffffffffffffffffffffffffffffffffffff16908060070154905089565b60006003600084815260200190815260200160002060090160008373ffffffffffffffffffffffffffffffffffffffff1673ffffffffffffffffffffffffffffffffffffffff16815260200190815260200160002054905092915050565b60026000541415611199576040517f08c379a000000000000000000000000000000000000000000000000000000000815260040161119090611648565b60405180910390fd5b600260008190555060006003600083815260200190815260200160002060040160016101000a81548160ff021916908315150217905550600160008190555050565b600260009054906101000a900473ffffffffffffffffffffffffffffffffffffffff1681565b60008135905061121081611a5e565b92915050565b60008135905061122581611a75565b92915050565b60008135905061123a81611a8c565b92915050565b6000806040838503121561125357600080fd5b600061126185828601611216565b92505060206112728582860161122b565b9150509250929050565b60006020828403121561128e57600080fd5b600061129c8482850161122b565b91505092915050565b600080604083850312156112b857600080fd5b60006112c68582860161122b565b92505060206112d785828601611201565b9150509250929050565b600080604083850312156112f457600080fd5b60006113028582860161122b565b92505060206113138582860161122b565b9150509250929050565b60008060006060848603121561133257600080fd5b60006113408682870161122b565b93505060206113518682870161122b565b92505060406113628682870161122b565b9150509250925092565b6113758161186d565b82525050565b61138481611813565b82525050565b61139381611801565b82525050565b6113a281611825565b82525050565b6113b18161187f565b82525050565b60006113c460118361179a565b91506113cf8261193f565b602082019050919050565b60006113e7601f8361179a565b91506113f282611968565b602082019050919050565b600061140a600d8361179a565b915061141582611991565b602082019050919050565b600061142d60128361179a565b9150611438826119ba565b602082019050919050565b600061145060158361179a565b915061145b826119e3565b602082019050919050565b6000611473600b8361179a565b915061147e82611a0c565b602082019050919050565b6000611496601f8361179a565b91506114a182611a35565b602082019050919050565b6114b581611863565b82525050565b60006020820190506114d0600083018461138a565b92915050565b60006020820190506114eb600083018461137b565b92915050565b6000606082019050611506600083018661138a565b611513602083018561136c565b61152060408301846114ac565b949350505050565b600060608201905061153d600083018661138a565b61154a602083018561138a565b61155760408301846114ac565b949350505050565b60006040820190506115746000830185611399565b61158160208301846114ac565b9392505050565b600060208201905081810360008301526115a1816113b7565b9050919050565b600060208201905081810360008301526115c1816113da565b9050919050565b600060208201905081810360008301526115e1816113fd565b9050919050565b6000602082019050818103600083015261160181611420565b9050919050565b6000602082019050818103600083015261162181611443565b9050919050565b6000602082019050818103600083015261164181611466565b9050919050565b6000602082019050818103600083015261166181611489565b9050919050565b600060208201905061167d60008301846114ac565b92915050565b600061012082019050611699600083018c6114ac565b6116a6602083018b6113a8565b6116b3604083018a6114ac565b6116c060608301896114ac565b6116cd6080830188611399565b6116da60a0830187611399565b6116e760c08301866114ac565b6116f460e083018561137b565b6117026101008301846114ac565b9a9950505050505050505050565b600060408201905061172560008301856114ac565b61173260208301846114ac565b9392505050565b600060c08201905061174e60008301896114ac565b61175b60208301886114ac565b6117686040830187611399565b6117756060830186611399565b61178260808301856114ac565b61178f60a08301846114ac565b979650505050505050565b600082825260208201905092915050565b60006117b682611863565b91506117c183611863565b9250827fffffffffffffffffffffffffffffffffffffffffffffffffffffffffffffffff038211156117f6576117f5611910565b5b828201905092915050565b600061180c82611843565b9050919050565b600061181e82611843565b9050919050565b60008115159050919050565b600061183c82611801565b9050919050565b600073ffffffffffffffffffffffffffffffffffffffff82169050919050565b6000819050919050565b6000611878826118a3565b9050919050565b600061188a82611891565b9050919050565b600061189c82611843565b9050919050565b60006118ae826118b5565b9050919050565b60006118c082611843565b9050919050565b60006118d282611863565b91507fffffffffffffffffffffffffffffffffffffffffffffffffffffffffffffffff82141561190557611904611910565b5b600182019050919050565b7f4e487b7100000000000000000000000000000000000000000000000000000000600052601160045260246000fd5b7f6974656d20616c726561647920736f6c64000000000000000000000000000000600082015250565b7f5072696365206d7573742062652067726561746572207468616e207a65726f00600082015250565b7f61756374696f6e20656e64656400000000000000000000000000000000000000600082015250565b7f6974656d20646f65736e27742065786973740000000000000000000000000000600082015250565b7f6e6f7420656e6f7567682065746820746f206269640000000000000000000000600082015250565b7f6e6f742073746172746564000000000000000000000000000000000000000000600082015250565b7f5265656e7472616e637947756172643a207265656e7472616e742063616c6c00600082015250565b611a6781611801565b8114611a7257600080fd5b50565b611a7e81611831565b8114611a8957600080fd5b50565b611a9581611863565b8114611aa057600080fd5b5056fea26469706673582212203b35da5e04dde8ca127d50bd48245a67e1a802b75682fbbb1db60843b45dd84364736f6c63430008040033",
  "linkReferences": {},
  "deployedLinkReferences": {}
}