{
  "_format": "hh-sol-artifact-1",
  "contractName": "Marketplace",
  "sourceName": "src/backend/contracts/Marketplace.sol",
  "abi": [
    {
      "inputs": [],
      "stateMutability": "nonpayable",
      "type": "constructor"
    },
    {
      "anonymous": false,
      "inputs": [
        {
          "indexed": false,
          "internalType": "uint256",
          "name": "itemId",
          "type": "uint256"
        },
        {
          "indexed": true,
          "internalType": "address",
          "name": "highestBidder",
          "type": "address"
        },
        {
          "indexed": false,
          "internalType": "uint256",
          "name": "highestBid",
          "type": "uint256"
        }
      ],
      "name": "Bid",
      "type": "event"
    },
    {
      "anonymous": false,
      "inputs": [
        {
          "indexed": false,
          "internalType": "uint256",
          "name": "itemId",
          "type": "uint256"
        },
        {
          "indexed": true,
          "internalType": "address",
          "name": "nft",
          "type": "address"
        },
        {
          "indexed": false,
          "internalType": "uint256",
          "name": "tokenId",
          "type": "uint256"
        },
        {
          "indexed": true,
          "internalType": "address",
          "name": "creator",
          "type": "address"
        },
        {
          "indexed": false,
          "internalType": "bool",
          "name": "isSold",
          "type": "bool"
        },
        {
          "indexed": false,
          "internalType": "bool",
          "name": "isStarted",
          "type": "bool"
        },
        {
          "indexed": false,
          "internalType": "uint256",
          "name": "endAt",
          "type": "uint256"
        },
        {
          "indexed": false,
          "internalType": "uint256",
          "name": "highestBid",
          "type": "uint256"
        }
      ],
      "name": "Offered",
      "type": "event"
    },
    {
      "anonymous": false,
      "inputs": [
        {
          "indexed": false,
          "internalType": "bool",
          "name": "isStarted",
          "type": "bool"
        },
        {
          "indexed": false,
          "internalType": "uint256",
          "name": "startPrice",
          "type": "uint256"
        }
      ],
      "name": "StartAuction",
      "type": "event"
    },
    {
      "anonymous": false,
      "inputs": [
        {
          "indexed": true,
          "internalType": "address",
          "name": "buyer",
          "type": "address"
        }
      ],
      "name": "endAuc",
      "type": "event"
    },
    {
      "anonymous": false,
      "inputs": [
        {
          "indexed": false,
          "internalType": "address",
          "name": "ad",
          "type": "address"
        }
      ],
      "name": "setAdmin",
      "type": "event"
    },
    {
      "inputs": [],
      "name": "admin",
      "outputs": [
        {
          "internalType": "address payable",
          "name": "",
          "type": "address"
        }
      ],
      "stateMutability": "view",
      "type": "function"
    },
    {
      "inputs": [
        {
          "internalType": "uint256",
          "name": "_itemId",
          "type": "uint256"
        }
      ],
      "name": "bid",
      "outputs": [],
      "stateMutability": "payable",
      "type": "function"
    },
    {
      "inputs": [
        {
          "internalType": "uint256",
          "name": "_itemId",
          "type": "uint256"
        }
      ],
      "name": "endAuction",
      "outputs": [],
      "stateMutability": "nonpayable",
      "type": "function"
    },
    {
      "inputs": [
        {
          "internalType": "uint256",
          "name": "_itemId",
          "type": "uint256"
        },
        {
          "internalType": "address",
          "name": "addr",
          "type": "address"
        }
      ],
      "name": "getBid",
      "outputs": [
        {
          "internalType": "uint256",
          "name": "",
          "type": "uint256"
        }
      ],
      "stateMutability": "view",
      "type": "function"
    },
    {
      "inputs": [
        {
          "internalType": "uint256",
          "name": "_itemId",
          "type": "uint256"
        },
        {
          "internalType": "uint256",
          "name": "index",
          "type": "uint256"
        }
      ],
      "name": "getBidderAddress",
      "outputs": [
        {
          "internalType": "address",
          "name": "",
          "type": "address"
        }
      ],
      "stateMutability": "view",
      "type": "function"
    },
    {
      "inputs": [],
      "name": "itemCount",
      "outputs": [
        {
          "internalType": "uint256",
          "name": "",
          "type": "uint256"
        }
      ],
      "stateMutability": "view",
      "type": "function"
    },
    {
      "inputs": [
        {
          "internalType": "uint256",
          "name": "",
          "type": "uint256"
        }
      ],
      "name": "items",
      "outputs": [
        {
          "internalType": "uint256",
          "name": "itemId",
          "type": "uint256"
        },
        {
          "internalType": "contract IERC721",
          "name": "nft",
          "type": "address"
        },
        {
          "internalType": "uint256",
          "name": "tokenId",
          "type": "uint256"
        },
        {
          "internalType": "uint256",
          "name": "startPrice",
          "type": "uint256"
        },
        {
          "internalType": "bool",
          "name": "isSold",
          "type": "bool"
        },
        {
          "internalType": "bool",
          "name": "isStarted",
          "type": "bool"
        },
        {
          "internalType": "uint256",
          "name": "endAt",
          "type": "uint256"
        },
        {
          "internalType": "address payable",
          "name": "highestBidder",
          "type": "address"
        },
        {
          "internalType": "uint256",
          "name": "highestBid",
          "type": "uint256"
        },
        {
          "internalType": "address",
          "name": "creator",
          "type": "address"
        }
      ],
      "stateMutability": "view",
      "type": "function"
    },
    {
      "inputs": [
        {
          "internalType": "contract IERC721",
          "name": "_nft",
          "type": "address"
        },
        {
          "internalType": "uint256",
          "name": "_tokenId",
          "type": "uint256"
        }
      ],
      "name": "makeItem",
      "outputs": [],
      "stateMutability": "nonpayable",
      "type": "function"
    },
    {
      "inputs": [
        {
          "internalType": "uint256",
          "name": "_itemId",
          "type": "uint256"
        },
        {
          "internalType": "uint256",
          "name": "_endAt",
          "type": "uint256"
        },
        {
          "internalType": "uint256",
          "name": "_startPrice",
          "type": "uint256"
        }
      ],
      "name": "startAuction",
      "outputs": [],
      "stateMutability": "nonpayable",
      "type": "function"
    },
    {
      "inputs": [
        {
          "internalType": "uint256",
          "name": "_itemId",
          "type": "uint256"
        }
      ],
      "name": "stopAuction",
      "outputs": [],
      "stateMutability": "nonpayable",
      "type": "function"
    },
    {
      "inputs": [
        {
          "internalType": "contract IERC721",
          "name": "_nft",
          "type": "address"
        },
        {
          "internalType": "uint256",
          "name": "_tokenId",
          "type": "uint256"
        }
      ],
      "name": "transItem",
      "outputs": [],
      "stateMutability": "nonpayable",
      "type": "function"
    }
  ],
  "bytecode": "0x60806040523480156200001157600080fd5b50600160008190555033600260006101000a81548173ffffffffffffffffffffffffffffffffffffffff021916908373ffffffffffffffffffffffffffffffffffffffff1602179055507f704b6c02682d329712ab11ef6312d46667fbdd78a5dc1aa406e65eec4d30cd5d336040516200008c9190620000ab565b60405180910390a1620000fc565b620000a581620000c8565b82525050565b6000602082019050620000c260008301846200009a565b92915050565b6000620000d582620000dc565b9050919050565b600073ffffffffffffffffffffffffffffffffffffffff82169050919050565b611be0806200010c6000396000f3fe60806040526004361061009c5760003560e01c8063b793242311610064578063b793242314610163578063b9a2de3a146101a0578063bfb231d2146101c9578063eba1b60b1461020f578063f510f6ae1461024c578063f851a440146102755761009c565b80631a1beae2146100a1578063454a2ab3146100ca5780635a7411d4146100e65780636bfb0d011461010f57806391e078bb1461013a575b600080fd5b3480156100ad57600080fd5b506100c860048036038101906100c39190611338565b6102a0565b005b6100e460048036038101906100df9190611374565b610543565b005b3480156100f257600080fd5b5061010d60048036038101906101089190611338565b61098b565b005b34801561011b57600080fd5b50610124610a54565b6040516101319190611760565b60405180910390f35b34801561014657600080fd5b50610161600480360381019061015c9190611415565b610a5a565b005b34801561016f57600080fd5b5061018a600480360381019061018591906113d9565b610bda565b60405161019791906115b3565b60405180910390f35b3480156101ac57600080fd5b506101c760048036038101906101c29190611374565b610c5d565b005b3480156101d557600080fd5b506101f060048036038101906101eb9190611374565b61111f565b6040516102069a9998979695949392919061177b565b60405180910390f35b34801561021b57600080fd5b506102366004803603810190610231919061139d565b6111ed565b6040516102439190611760565b60405180910390f35b34801561025857600080fd5b50610273600480360381019061026e9190611374565b61124b565b005b34801561028157600080fd5b5061028a6112d3565b60405161029791906115ce565b60405180910390f35b600260005414156102e6576040517f08c379a00000000000000000000000000000000000000000000000000000000081526004016102dd90611740565b60405180910390fd5b600260008190555060016000815480929190610301906119ce565b9190505550600060036000600154815260200190815260200160002090506001548160000181905550828160010160006101000a81548173ffffffffffffffffffffffffffffffffffffffff021916908373ffffffffffffffffffffffffffffffffffffffff16021790555081816002018190555060008160040160006101000a81548160ff02191690831515021790555060008160040160016101000a81548160ff0219169083151502179055506000816005018190555060008160060160006101000a81548173ffffffffffffffffffffffffffffffffffffffff021916908373ffffffffffffffffffffffffffffffffffffffff16021790555060008160070181905550338160080160006101000a81548173ffffffffffffffffffffffffffffffffffffffff021916908373ffffffffffffffffffffffffffffffffffffffff1602179055503373ffffffffffffffffffffffffffffffffffffffff168373ffffffffffffffffffffffffffffffffffffffff167f287750b953bf3e9bdd4135551dabb856749af3a3c346e5481f179f9b543f28dd6001548560036000600154815260200190815260200160002060040160009054906101000a900460ff1660036000600154815260200190815260200160002060040160019054906101000a900460ff16600360006001548152602001908152602001600020600501546003600060015481526020019081526020016000206007015460405161052e96959493929190611840565b60405180910390a35060016000819055505050565b60006003600083815260200190815260200160002090508060040160009054906101000a900460ff16156105ac576040517f08c379a00000000000000000000000000000000000000000000000000000000081526004016105a390611680565b60405180910390fd5b8060040160019054906101000a900460ff166105fd576040517f08c379a00000000000000000000000000000000000000000000000000000000081526004016105f490611720565b60405180910390fd5b80600501544210610643576040517f08c379a000000000000000000000000000000000000000000000000000000000815260040161063a906116c0565b60405180910390fd5b60008211801561065557506001548211155b610694576040517f08c379a000000000000000000000000000000000000000000000000000000000815260040161068b906116e0565b60405180910390fd5b806007015481600a0160003373ffffffffffffffffffffffffffffffffffffffff1673ffffffffffffffffffffffffffffffffffffffff16815260200190815260200160002054346106e691906118b2565b1015610727576040517f08c379a000000000000000000000000000000000000000000000000000000000815260040161071e90611700565b60405180910390fd5b600073ffffffffffffffffffffffffffffffffffffffff168160060160009054906101000a900473ffffffffffffffffffffffffffffffffffffffff1673ffffffffffffffffffffffffffffffffffffffff161461087757806007015481600a0160008360060160009054906101000a900473ffffffffffffffffffffffffffffffffffffffff1673ffffffffffffffffffffffffffffffffffffffff1673ffffffffffffffffffffffffffffffffffffffff16815260200190815260200160002081905550806009018160060160009054906101000a900473ffffffffffffffffffffffffffffffffffffffff169080600181540180825580915050600190039060005260206000200160009091909190916101000a81548173ffffffffffffffffffffffffffffffffffffffff021916908373ffffffffffffffffffffffffffffffffffffffff1602179055505b338160060160006101000a81548173ffffffffffffffffffffffffffffffffffffffff021916908373ffffffffffffffffffffffffffffffffffffffff16021790555080600a0160003373ffffffffffffffffffffffffffffffffffffffff1673ffffffffffffffffffffffffffffffffffffffff168152602001908152602001600020543461090791906118b2565b81600701819055508060060160009054906101000a900473ffffffffffffffffffffffffffffffffffffffff1673ffffffffffffffffffffffffffffffffffffffff167fdcd726e11f8b5e160f00290f0fe3a1abb547474e53a8e7a8f49a85e7b1ca319983836007015460405161097f929190611817565b60405180910390a25050565b600260005414156109d1576040517f08c379a00000000000000000000000000000000000000000000000000000000081526004016109c890611740565b60405180910390fd5b60026000819055508173ffffffffffffffffffffffffffffffffffffffff166323b872dd3330846040518463ffffffff1660e01b8152600401610a1693929190611620565b600060405180830381600087803b158015610a3057600080fd5b505af1158015610a44573d6000803e3d6000fd5b5050505060016000819055505050565b60015481565b60026000541415610aa0576040517f08c379a0000000000000000000000000000000000000000000000000000000008152600401610a9790611740565b60405180910390fd5b600260008190555060008111610aeb576040517f08c379a0000000000000000000000000000000000000000000000000000000008152600401610ae2906116a0565b60405180910390fd5b60016003600085815260200190815260200160002060040160016101000a81548160ff0219169083151502179055508142610b2691906118b2565b60036000858152602001908152602001600020600501819055508060036000858152602001908152602001600020600301819055507f30a39fcd0dc176736767bb20423ed1bda1d17d78b18215721859cd42d89ba2b66003600085815260200190815260200160002060040160019054906101000a900460ff166003600086815260200190815260200160002060030154604051610bc5929190611657565b60405180910390a16001600081905550505050565b6000600360008481526020019081526020016000206009018281548110610c2a577f4e487b7100000000000000000000000000000000000000000000000000000000600052603260045260246000fd5b9060005260206000200160009054906101000a900473ffffffffffffffffffffffffffffffffffffffff16905092915050565b60026000541415610ca3576040517f08c379a0000000000000000000000000000000000000000000000000000000008152600401610c9a90611740565b60405180910390fd5b60026000819055506000600360008381526020019081526020016000209050600073ffffffffffffffffffffffffffffffffffffffff168160060160009054906101000a900473ffffffffffffffffffffffffffffffffffffffff1673ffffffffffffffffffffffffffffffffffffffff161415610d3e5760008160040160016101000a81548160ff02191690831515021790555050611114565b600073ffffffffffffffffffffffffffffffffffffffff168160060160009054906101000a900473ffffffffffffffffffffffffffffffffffffffff1673ffffffffffffffffffffffffffffffffffffffff161461108e57600260009054906101000a900473ffffffffffffffffffffffffffffffffffffffff1673ffffffffffffffffffffffffffffffffffffffff166108fc82600701549081150290604051600060405180830381858888f19350505050158015610e02573d6000803e3d6000fd5b508060010160009054906101000a900473ffffffffffffffffffffffffffffffffffffffff1673ffffffffffffffffffffffffffffffffffffffff166323b872dd308360060160009054906101000a900473ffffffffffffffffffffffffffffffffffffffff1684600201546040518463ffffffff1660e01b8152600401610e8c939291906115e9565b600060405180830381600087803b158015610ea657600080fd5b505af1158015610eba573d6000803e3d6000fd5b5050505060018160040160006101000a81548160ff02191690831515021790555060005b816009018054905081101561108c576000826009018281548110610f2b577f4e487b7100000000000000000000000000000000000000000000000000000000600052603260045260246000fd5b9060005260206000200160009054906101000a900473ffffffffffffffffffffffffffffffffffffffff169050600083600a0160008373ffffffffffffffffffffffffffffffffffffffff1673ffffffffffffffffffffffffffffffffffffffff16815260200190815260200160002054111561107857600083600a0160008373ffffffffffffffffffffffffffffffffffffffff1673ffffffffffffffffffffffffffffffffffffffff168152602001908152602001600020549050600084600a0160008473ffffffffffffffffffffffffffffffffffffffff1673ffffffffffffffffffffffffffffffffffffffff168152602001908152602001600020819055508173ffffffffffffffffffffffffffffffffffffffff166108fc829081150290604051600060405180830381858888f19350505050158015611075573d6000803e3d6000fd5b50505b508080611084906119ce565b915050610ede565b505b60008160040160016101000a81548160ff0219169083151502179055508060060160009054906101000a900473ffffffffffffffffffffffffffffffffffffffff1673ffffffffffffffffffffffffffffffffffffffff167f66c87a2a6a833f058e0c7fafff9b3e7aaf3b55dfee877ec8b6340e80324db84c60405160405180910390a2505b600160008190555050565b60036020528060005260406000206000915090508060000154908060010160009054906101000a900473ffffffffffffffffffffffffffffffffffffffff16908060020154908060030154908060040160009054906101000a900460ff16908060040160019054906101000a900460ff16908060050154908060060160009054906101000a900473ffffffffffffffffffffffffffffffffffffffff16908060070154908060080160009054906101000a900473ffffffffffffffffffffffffffffffffffffffff1690508a565b600060036000848152602001908152602001600020600a0160008373ffffffffffffffffffffffffffffffffffffffff1673ffffffffffffffffffffffffffffffffffffffff16815260200190815260200160002054905092915050565b60026000541415611291576040517f08c379a000000000000000000000000000000000000000000000000000000000815260040161128890611740565b60405180910390fd5b600260008190555060006003600083815260200190815260200160002060040160016101000a81548160ff021916908315150217905550600160008190555050565b600260009054906101000a900473ffffffffffffffffffffffffffffffffffffffff1681565b60008135905061130881611b65565b92915050565b60008135905061131d81611b7c565b92915050565b60008135905061133281611b93565b92915050565b6000806040838503121561134b57600080fd5b60006113598582860161130e565b925050602061136a85828601611323565b9150509250929050565b60006020828403121561138657600080fd5b600061139484828501611323565b91505092915050565b600080604083850312156113b057600080fd5b60006113be85828601611323565b92505060206113cf858286016112f9565b9150509250929050565b600080604083850312156113ec57600080fd5b60006113fa85828601611323565b925050602061140b85828601611323565b9150509250929050565b60008060006060848603121561142a57600080fd5b600061143886828701611323565b935050602061144986828701611323565b925050604061145a86828701611323565b9150509250925092565b61146d81611974565b82525050565b61147c8161191a565b82525050565b61148b81611908565b82525050565b61149a8161192c565b82525050565b6114a981611986565b82525050565b60006114bc6011836118a1565b91506114c782611a46565b602082019050919050565b60006114df601f836118a1565b91506114ea82611a6f565b602082019050919050565b6000611502600d836118a1565b915061150d82611a98565b602082019050919050565b60006115256012836118a1565b915061153082611ac1565b602082019050919050565b60006115486015836118a1565b915061155382611aea565b602082019050919050565b600061156b600b836118a1565b915061157682611b13565b602082019050919050565b600061158e601f836118a1565b915061159982611b3c565b602082019050919050565b6115ad8161196a565b82525050565b60006020820190506115c86000830184611482565b92915050565b60006020820190506115e36000830184611473565b92915050565b60006060820190506115fe6000830186611482565b61160b6020830185611464565b61161860408301846115a4565b949350505050565b60006060820190506116356000830186611482565b6116426020830185611482565b61164f60408301846115a4565b949350505050565b600060408201905061166c6000830185611491565b61167960208301846115a4565b9392505050565b60006020820190508181036000830152611699816114af565b9050919050565b600060208201905081810360008301526116b9816114d2565b9050919050565b600060208201905081810360008301526116d9816114f5565b9050919050565b600060208201905081810360008301526116f981611518565b9050919050565b600060208201905081810360008301526117198161153b565b9050919050565b600060208201905081810360008301526117398161155e565b9050919050565b6000602082019050818103600083015261175981611581565b9050919050565b600060208201905061177560008301846115a4565b92915050565b600061014082019050611791600083018d6115a4565b61179e602083018c6114a0565b6117ab604083018b6115a4565b6117b8606083018a6115a4565b6117c56080830189611491565b6117d260a0830188611491565b6117df60c08301876115a4565b6117ec60e0830186611473565b6117fa6101008301856115a4565b611808610120830184611482565b9b9a5050505050505050505050565b600060408201905061182c60008301856115a4565b61183960208301846115a4565b9392505050565b600060c08201905061185560008301896115a4565b61186260208301886115a4565b61186f6040830187611491565b61187c6060830186611491565b61188960808301856115a4565b61189660a08301846115a4565b979650505050505050565b600082825260208201905092915050565b60006118bd8261196a565b91506118c88361196a565b9250827fffffffffffffffffffffffffffffffffffffffffffffffffffffffffffffffff038211156118fd576118fc611a17565b5b828201905092915050565b60006119138261194a565b9050919050565b60006119258261194a565b9050919050565b60008115159050919050565b600061194382611908565b9050919050565b600073ffffffffffffffffffffffffffffffffffffffff82169050919050565b6000819050919050565b600061197f826119aa565b9050919050565b600061199182611998565b9050919050565b60006119a38261194a565b9050919050565b60006119b5826119bc565b9050919050565b60006119c78261194a565b9050919050565b60006119d98261196a565b91507fffffffffffffffffffffffffffffffffffffffffffffffffffffffffffffffff821415611a0c57611a0b611a17565b5b600182019050919050565b7f4e487b7100000000000000000000000000000000000000000000000000000000600052601160045260246000fd5b7f6974656d20616c726561647920736f6c64000000000000000000000000000000600082015250565b7f5072696365206d7573742062652067726561746572207468616e207a65726f00600082015250565b7f61756374696f6e20656e64656400000000000000000000000000000000000000600082015250565b7f6974656d20646f65736e27742065786973740000000000000000000000000000600082015250565b7f6e6f7420656e6f7567682065746820746f206269640000000000000000000000600082015250565b7f6e6f742073746172746564000000000000000000000000000000000000000000600082015250565b7f5265656e7472616e637947756172643a207265656e7472616e742063616c6c00600082015250565b611b6e81611908565b8114611b7957600080fd5b50565b611b8581611938565b8114611b9057600080fd5b50565b611b9c8161196a565b8114611ba757600080fd5b5056fea26469706673582212204f96b8a0707d50206d0b9332dd4a53ad60fa084fb1c5d31eed324be967fef65664736f6c63430008040033",
  "linkReferences": {},
  "deployedLinkReferences": {}
}