{
  "_format": "hh-sol-artifact-1",
  "contractName": "Marketplace",
  "sourceName": "src/backend/contracts/Marketplace.sol",
  "abi": [
    {
      "anonymous": false,
      "inputs": [
        {
          "indexed": false,
          "internalType": "uint256",
          "name": "itemId",
          "type": "uint256"
        },
        {
          "indexed": true,
          "internalType": "address",
          "name": "highestBidder",
          "type": "address"
        },
        {
          "indexed": false,
          "internalType": "uint256",
          "name": "highestBid",
          "type": "uint256"
        }
      ],
      "name": "Bid",
      "type": "event"
    },
    {
      "anonymous": false,
      "inputs": [
        {
          "indexed": false,
          "internalType": "uint256",
          "name": "itemId",
          "type": "uint256"
        },
        {
          "indexed": true,
          "internalType": "address",
          "name": "nft",
          "type": "address"
        },
        {
          "indexed": false,
          "internalType": "uint256",
          "name": "tokenId",
          "type": "uint256"
        },
        {
          "indexed": false,
          "internalType": "uint256",
          "name": "price",
          "type": "uint256"
        },
        {
          "indexed": true,
          "internalType": "address",
          "name": "seller",
          "type": "address"
        },
        {
          "indexed": false,
          "internalType": "bool",
          "name": "isSold",
          "type": "bool"
        },
        {
          "indexed": false,
          "internalType": "bool",
          "name": "isStarted",
          "type": "bool"
        },
        {
          "indexed": false,
          "internalType": "uint256",
          "name": "endAt",
          "type": "uint256"
        },
        {
          "indexed": false,
          "internalType": "uint256",
          "name": "highestBid",
          "type": "uint256"
        }
      ],
      "name": "Offered",
      "type": "event"
    },
    {
      "anonymous": false,
      "inputs": [
        {
          "indexed": false,
          "internalType": "bool",
          "name": "isStarted",
          "type": "bool"
        }
      ],
      "name": "StartAuction",
      "type": "event"
    },
    {
      "inputs": [
        {
          "internalType": "uint256",
          "name": "_itemId",
          "type": "uint256"
        }
      ],
      "name": "bid",
      "outputs": [],
      "stateMutability": "payable",
      "type": "function"
    },
    {
      "inputs": [
        {
          "internalType": "uint256",
          "name": "_itemId",
          "type": "uint256"
        }
      ],
      "name": "endAuction",
      "outputs": [],
      "stateMutability": "nonpayable",
      "type": "function"
    },
    {
      "inputs": [
        {
          "internalType": "uint256",
          "name": "_itemId",
          "type": "uint256"
        },
        {
          "internalType": "address",
          "name": "addr",
          "type": "address"
        }
      ],
      "name": "getBid",
      "outputs": [
        {
          "internalType": "uint256",
          "name": "",
          "type": "uint256"
        }
      ],
      "stateMutability": "view",
      "type": "function"
    },
    {
      "inputs": [
        {
          "internalType": "uint256",
          "name": "_itemId",
          "type": "uint256"
        },
        {
          "internalType": "uint256",
          "name": "index",
          "type": "uint256"
        }
      ],
      "name": "getBidderAddress",
      "outputs": [
        {
          "internalType": "address",
          "name": "",
          "type": "address"
        }
      ],
      "stateMutability": "view",
      "type": "function"
    },
    {
      "inputs": [],
      "name": "itemCount",
      "outputs": [
        {
          "internalType": "uint256",
          "name": "",
          "type": "uint256"
        }
      ],
      "stateMutability": "view",
      "type": "function"
    },
    {
      "inputs": [
        {
          "internalType": "uint256",
          "name": "",
          "type": "uint256"
        }
      ],
      "name": "items",
      "outputs": [
        {
          "internalType": "uint256",
          "name": "itemId",
          "type": "uint256"
        },
        {
          "internalType": "contract IERC721",
          "name": "nft",
          "type": "address"
        },
        {
          "internalType": "uint256",
          "name": "tokenId",
          "type": "uint256"
        },
        {
          "internalType": "uint256",
          "name": "startPrice",
          "type": "uint256"
        },
        {
          "internalType": "address payable",
          "name": "seller",
          "type": "address"
        },
        {
          "internalType": "bool",
          "name": "isSold",
          "type": "bool"
        },
        {
          "internalType": "bool",
          "name": "isStarted",
          "type": "bool"
        },
        {
          "internalType": "uint256",
          "name": "endAt",
          "type": "uint256"
        },
        {
          "internalType": "address payable",
          "name": "highestBidder",
          "type": "address"
        },
        {
          "internalType": "uint256",
          "name": "highestBid",
          "type": "uint256"
        }
      ],
      "stateMutability": "view",
      "type": "function"
    },
    {
      "inputs": [
        {
          "internalType": "contract IERC721",
          "name": "_nft",
          "type": "address"
        },
        {
          "internalType": "uint256",
          "name": "_tokenId",
          "type": "uint256"
        },
        {
          "internalType": "uint256",
          "name": "_startPrice",
          "type": "uint256"
        }
      ],
      "name": "makeItem",
      "outputs": [],
      "stateMutability": "nonpayable",
      "type": "function"
    },
    {
      "inputs": [
        {
          "internalType": "uint256",
          "name": "_itemId",
          "type": "uint256"
        },
        {
          "internalType": "uint256",
          "name": "_endAt",
          "type": "uint256"
        }
      ],
      "name": "startAuction",
      "outputs": [],
      "stateMutability": "nonpayable",
      "type": "function"
    },
    {
      "inputs": [
        {
          "internalType": "uint256",
          "name": "_itemId",
          "type": "uint256"
        }
      ],
      "name": "stopAuction",
      "outputs": [],
      "stateMutability": "nonpayable",
      "type": "function"
    }
  ],
  "bytecode": "0x608060405234801561001057600080fd5b506001600081905550611949806100286000396000f3fe6080604052600436106100865760003560e01c8063b9a2de3a11610059578063b9a2de3a14610138578063bfb231d214610161578063eba1b60b146101a7578063f510f6ae146101e4578063fa00afc71461020d57610086565b8063454a2ab31461008b5780634fee13fc146100a75780636bfb0d01146100d0578063b7932423146100fb575b600080fd5b6100a560048036038101906100a09190611147565b610236565b005b3480156100b357600080fd5b506100ce60048036038101906100c991906111ac565b610632565b005b3480156100dc57600080fd5b506100e561073b565b6040516100f291906114bb565b60405180910390f35b34801561010757600080fd5b50610122600480360381019061011d91906111ac565b610741565b60405161012f9190611337565b60405180910390f35b34801561014457600080fd5b5061015f600480360381019061015a9190611147565b6107c4565b005b34801561016d57600080fd5b5061018860048036038101906101839190611147565b610ba4565b60405161019e9a999897969594939291906114d6565b60405180910390f35b3480156101b357600080fd5b506101ce60048036038101906101c99190611170565b610c72565b6040516101db91906114bb565b60405180910390f35b3480156101f057600080fd5b5061020b60048036038101906102069190611147565b610cd0565b005b34801561021957600080fd5b50610234600480360381019061022f91906110f8565b610d58565b005b60006002600083815260200190815260200160002090508060040160149054906101000a900460ff161561029f576040517f08c379a0000000000000000000000000000000000000000000000000000000008152600401610296906113db565b60405180910390fd5b8060040160159054906101000a900460ff166102f0576040517f08c379a00000000000000000000000000000000000000000000000000000000081526004016102e79061147b565b60405180910390fd5b80600501544210610336576040517f08c379a000000000000000000000000000000000000000000000000000000000815260040161032d9061141b565b60405180910390fd5b60008211801561034857506001548211155b610387576040517f08c379a000000000000000000000000000000000000000000000000000000000815260040161037e9061143b565b60405180910390fd5b80600701548160090160003373ffffffffffffffffffffffffffffffffffffffff1673ffffffffffffffffffffffffffffffffffffffff16815260200190815260200160002054346103d9919061161b565b101561041a576040517f08c379a00000000000000000000000000000000000000000000000000000000081526004016104119061145b565b60405180910390fd5b600073ffffffffffffffffffffffffffffffffffffffff168160060160009054906101000a900473ffffffffffffffffffffffffffffffffffffffff1673ffffffffffffffffffffffffffffffffffffffff161461056a5780600701548160090160008360060160009054906101000a900473ffffffffffffffffffffffffffffffffffffffff1673ffffffffffffffffffffffffffffffffffffffff1673ffffffffffffffffffffffffffffffffffffffff16815260200190815260200160002081905550806008018160060160009054906101000a900473ffffffffffffffffffffffffffffffffffffffff169080600181540180825580915050600190039060005260206000200160009091909190916101000a81548173ffffffffffffffffffffffffffffffffffffffff021916908373ffffffffffffffffffffffffffffffffffffffff1602179055505b338160060160006101000a81548173ffffffffffffffffffffffffffffffffffffffff021916908373ffffffffffffffffffffffffffffffffffffffff1602179055503481600701819055508060060160009054906101000a900473ffffffffffffffffffffffffffffffffffffffff1673ffffffffffffffffffffffffffffffffffffffff167fdcd726e11f8b5e160f00290f0fe3a1abb547474e53a8e7a8f49a85e7b1ca3199838360070154604051610626929190611572565b60405180910390a25050565b60026000541415610678576040517f08c379a000000000000000000000000000000000000000000000000000000000815260040161066f9061149b565b60405180910390fd5b600260008190555060016002600084815260200190815260200160002060040160156101000a81548160ff02191690831515021790555080426106bb919061161b565b60026000848152602001908152602001600020600501819055507f871f10cba654b9d654415f7c24e0bae27cf949c2f15ef645963826f8cac6786e6002600084815260200190815260200160002060040160159054906101000a900460ff1660405161072791906113c0565b60405180910390a160016000819055505050565b60015481565b6000600260008481526020019081526020016000206008018281548110610791577f4e487b7100000000000000000000000000000000000000000000000000000000600052603260045260246000fd5b9060005260206000200160009054906101000a900473ffffffffffffffffffffffffffffffffffffffff16905092915050565b6002600054141561080a576040517f08c379a00000000000000000000000000000000000000000000000000000000081526004016108019061149b565b60405180910390fd5b60026000819055506000600260008381526020019081526020016000209050600073ffffffffffffffffffffffffffffffffffffffff168160060160009054906101000a900473ffffffffffffffffffffffffffffffffffffffff1673ffffffffffffffffffffffffffffffffffffffff1614610b7b578060040160009054906101000a900473ffffffffffffffffffffffffffffffffffffffff1673ffffffffffffffffffffffffffffffffffffffff166108fc82600701549081150290604051600060405180830381858888f193505050501580156108ef573d6000803e3d6000fd5b508060010160009054906101000a900473ffffffffffffffffffffffffffffffffffffffff1673ffffffffffffffffffffffffffffffffffffffff166323b872dd308360060160009054906101000a900473ffffffffffffffffffffffffffffffffffffffff1684600201546040518463ffffffff1660e01b815260040161097993929190611352565b600060405180830381600087803b15801561099357600080fd5b505af11580156109a7573d6000803e3d6000fd5b5050505060018160040160146101000a81548160ff02191690831515021790555060005b8160080180549050811015610b79576000826008018281548110610a18577f4e487b7100000000000000000000000000000000000000000000000000000000600052603260045260246000fd5b9060005260206000200160009054906101000a900473ffffffffffffffffffffffffffffffffffffffff16905060008360090160008373ffffffffffffffffffffffffffffffffffffffff1673ffffffffffffffffffffffffffffffffffffffff168152602001908152602001600020541115610b655760008360090160008373ffffffffffffffffffffffffffffffffffffffff1673ffffffffffffffffffffffffffffffffffffffff16815260200190815260200160002054905060008460090160008473ffffffffffffffffffffffffffffffffffffffff1673ffffffffffffffffffffffffffffffffffffffff168152602001908152602001600020819055508173ffffffffffffffffffffffffffffffffffffffff166108fc829081150290604051600060405180830381858888f19350505050158015610b62573d6000803e3d6000fd5b50505b508080610b7190611737565b9150506109cb565b505b60008160040160156101000a81548160ff02191690831515021790555050600160008190555050565b60026020528060005260406000206000915090508060000154908060010160009054906101000a900473ffffffffffffffffffffffffffffffffffffffff16908060020154908060030154908060040160009054906101000a900473ffffffffffffffffffffffffffffffffffffffff16908060040160149054906101000a900460ff16908060040160159054906101000a900460ff16908060050154908060060160009054906101000a900473ffffffffffffffffffffffffffffffffffffffff1690806007015490508a565b60006002600084815260200190815260200160002060090160008373ffffffffffffffffffffffffffffffffffffffff1673ffffffffffffffffffffffffffffffffffffffff16815260200190815260200160002054905092915050565b60026000541415610d16576040517f08c379a0000000000000000000000000000000000000000000000000000000008152600401610d0d9061149b565b60405180910390fd5b600260008190555060006002600083815260200190815260200160002060040160156101000a81548160ff021916908315150217905550600160008190555050565b60026000541415610d9e576040517f08c379a0000000000000000000000000000000000000000000000000000000008152600401610d959061149b565b60405180910390fd5b600260008190555060008111610de9576040517f08c379a0000000000000000000000000000000000000000000000000000000008152600401610de0906113fb565b60405180910390fd5b8273ffffffffffffffffffffffffffffffffffffffff166323b872dd3330856040518463ffffffff1660e01b8152600401610e2693929190611389565b600060405180830381600087803b158015610e4057600080fd5b505af1158015610e54573d6000803e3d6000fd5b5050505060016000815480929190610e6b90611737565b9190505550600060026000600154815260200190815260200160002090506001548160000181905550838160010160006101000a81548173ffffffffffffffffffffffffffffffffffffffff021916908373ffffffffffffffffffffffffffffffffffffffff160217905550828160020181905550818160030181905550338160040160006101000a81548173ffffffffffffffffffffffffffffffffffffffff021916908373ffffffffffffffffffffffffffffffffffffffff16021790555060008160040160146101000a81548160ff02191690831515021790555060008160040160156101000a81548160ff0219169083151502179055506000816005018190555060008160060160006101000a81548173ffffffffffffffffffffffffffffffffffffffff021916908373ffffffffffffffffffffffffffffffffffffffff160217905550600081600701819055503373ffffffffffffffffffffffffffffffffffffffff168473ffffffffffffffffffffffffffffffffffffffff167f99d08826cf00ba2bc5b1fd35b1adccb5264a1cb11136e48e780144da251f457d600154868660026000600154815260200190815260200160002060040160149054906101000a900460ff1660026000600154815260200190815260200160002060040160159054906101000a900460ff1660026000600154815260200190815260200160002060050154600260006001548152602001908152602001600020600701546040516110a3979695949392919061159b565b60405180910390a3506001600081905550505050565b6000813590506110c8816118ce565b92915050565b6000813590506110dd816118e5565b92915050565b6000813590506110f2816118fc565b92915050565b60008060006060848603121561110d57600080fd5b600061111b868287016110ce565b935050602061112c868287016110e3565b925050604061113d868287016110e3565b9150509250925092565b60006020828403121561115957600080fd5b6000611167848285016110e3565b91505092915050565b6000806040838503121561118357600080fd5b6000611191858286016110e3565b92505060206111a2858286016110b9565b9150509250929050565b600080604083850312156111bf57600080fd5b60006111cd858286016110e3565b92505060206111de858286016110e3565b9150509250929050565b6111f1816116dd565b82525050565b61120081611683565b82525050565b61120f81611671565b82525050565b61121e81611695565b82525050565b61122d816116ef565b82525050565b600061124060118361160a565b915061124b826117af565b602082019050919050565b6000611263601f8361160a565b915061126e826117d8565b602082019050919050565b6000611286600d8361160a565b915061129182611801565b602082019050919050565b60006112a960128361160a565b91506112b48261182a565b602082019050919050565b60006112cc60158361160a565b91506112d782611853565b602082019050919050565b60006112ef600b8361160a565b91506112fa8261187c565b602082019050919050565b6000611312601f8361160a565b915061131d826118a5565b602082019050919050565b611331816116d3565b82525050565b600060208201905061134c6000830184611206565b92915050565b60006060820190506113676000830186611206565b61137460208301856111e8565b6113816040830184611328565b949350505050565b600060608201905061139e6000830186611206565b6113ab6020830185611206565b6113b86040830184611328565b949350505050565b60006020820190506113d56000830184611215565b92915050565b600060208201905081810360008301526113f481611233565b9050919050565b6000602082019050818103600083015261141481611256565b9050919050565b6000602082019050818103600083015261143481611279565b9050919050565b600060208201905081810360008301526114548161129c565b9050919050565b60006020820190508181036000830152611474816112bf565b9050919050565b60006020820190508181036000830152611494816112e2565b9050919050565b600060208201905081810360008301526114b481611305565b9050919050565b60006020820190506114d06000830184611328565b92915050565b6000610140820190506114ec600083018d611328565b6114f9602083018c611224565b611506604083018b611328565b611513606083018a611328565b61152060808301896111f7565b61152d60a0830188611215565b61153a60c0830187611215565b61154760e0830186611328565b6115556101008301856111f7565b611563610120830184611328565b9b9a5050505050505050505050565b60006040820190506115876000830185611328565b6115946020830184611328565b9392505050565b600060e0820190506115b0600083018a611328565b6115bd6020830189611328565b6115ca6040830188611328565b6115d76060830187611215565b6115e46080830186611215565b6115f160a0830185611328565b6115fe60c0830184611328565b98975050505050505050565b600082825260208201905092915050565b6000611626826116d3565b9150611631836116d3565b9250827fffffffffffffffffffffffffffffffffffffffffffffffffffffffffffffffff0382111561166657611665611780565b5b828201905092915050565b600061167c826116b3565b9050919050565b600061168e826116b3565b9050919050565b60008115159050919050565b60006116ac82611671565b9050919050565b600073ffffffffffffffffffffffffffffffffffffffff82169050919050565b6000819050919050565b60006116e882611713565b9050919050565b60006116fa82611701565b9050919050565b600061170c826116b3565b9050919050565b600061171e82611725565b9050919050565b6000611730826116b3565b9050919050565b6000611742826116d3565b91507fffffffffffffffffffffffffffffffffffffffffffffffffffffffffffffffff82141561177557611774611780565b5b600182019050919050565b7f4e487b7100000000000000000000000000000000000000000000000000000000600052601160045260246000fd5b7f6974656d20616c726561647920736f6c64000000000000000000000000000000600082015250565b7f5072696365206d7573742062652067726561746572207468616e207a65726f00600082015250565b7f61756374696f6e20656e64656400000000000000000000000000000000000000600082015250565b7f6974656d20646f65736e27742065786973740000000000000000000000000000600082015250565b7f6e6f7420656e6f7567682065746820746f206269640000000000000000000000600082015250565b7f6e6f742073746172746564000000000000000000000000000000000000000000600082015250565b7f5265656e7472616e637947756172643a207265656e7472616e742063616c6c00600082015250565b6118d781611671565b81146118e257600080fd5b50565b6118ee816116a1565b81146118f957600080fd5b50565b611905816116d3565b811461191057600080fd5b5056fea2646970667358221220ca43cc0d0f5fb7f7947e97de74197b4e8b18bcec0eb67341fb96aaecd71fdf5564736f6c63430008040033",
  "linkReferences": {},
  "deployedLinkReferences": {}
}